{
  "_format": "hh-sol-artifact-1",
  "contractName": "FundMe",
  "sourceName": "contracts/FundMe.sol",
  "abi": [
    {
      "inputs": [
        {
          "internalType": "uint256",
          "name": "_lockTime",
          "type": "uint256"
        },
        {
          "internalType": "address",
          "name": "dataFeedAddr",
          "type": "address"
        }
      ],
      "stateMutability": "nonpayable",
      "type": "constructor"
    },
    {
      "anonymous": false,
      "inputs": [
        {
          "indexed": false,
          "internalType": "uint256",
          "name": "",
          "type": "uint256"
        }
      ],
      "name": "FundWithdrawByOwner",
      "type": "event"
    },
    {
      "anonymous": false,
      "inputs": [
        {
          "indexed": false,
          "internalType": "address",
          "name": "",
          "type": "address"
        },
        {
          "indexed": false,
          "internalType": "uint256",
          "name": "",
          "type": "uint256"
        }
      ],
      "name": "RefundByFunder",
      "type": "event"
    },
    {
      "inputs": [],
      "name": "dataFeed",
      "outputs": [
        {
          "internalType": "contract AggregatorV3Interface",
          "name": "",
          "type": "address"
        }
      ],
      "stateMutability": "view",
      "type": "function"
    },
    {
      "inputs": [],
      "name": "fund",
      "outputs": [],
      "stateMutability": "payable",
      "type": "function"
    },
    {
      "inputs": [
        {
          "internalType": "address",
          "name": "",
          "type": "address"
        }
      ],
      "name": "fundersToAmount",
      "outputs": [
        {
          "internalType": "uint256",
          "name": "",
          "type": "uint256"
        }
      ],
      "stateMutability": "view",
      "type": "function"
    },
    {
      "inputs": [],
      "name": "getChainlinkDataFeedLatestAnswer",
      "outputs": [
        {
          "internalType": "int256",
          "name": "",
          "type": "int256"
        }
      ],
      "stateMutability": "view",
      "type": "function"
    },
    {
      "inputs": [],
      "name": "getFund",
      "outputs": [],
      "stateMutability": "nonpayable",
      "type": "function"
    },
    {
      "inputs": [],
      "name": "getFundSuccess",
      "outputs": [
        {
          "internalType": "bool",
          "name": "",
          "type": "bool"
        }
      ],
      "stateMutability": "view",
      "type": "function"
    },
    {
      "inputs": [],
      "name": "owner",
      "outputs": [
        {
          "internalType": "address",
          "name": "",
          "type": "address"
        }
      ],
      "stateMutability": "view",
      "type": "function"
    },
    {
      "inputs": [],
      "name": "refund",
      "outputs": [],
      "stateMutability": "nonpayable",
      "type": "function"
    },
    {
      "inputs": [
        {
          "internalType": "address",
          "name": "_erc20Addr",
          "type": "address"
        }
      ],
      "name": "setErc20Addr",
      "outputs": [],
      "stateMutability": "nonpayable",
      "type": "function"
    },
    {
      "inputs": [
        {
          "internalType": "address",
          "name": "funder",
          "type": "address"
        },
        {
          "internalType": "uint256",
          "name": "amountToUpdate",
          "type": "uint256"
        }
      ],
      "name": "setFunderToAmount",
      "outputs": [],
      "stateMutability": "nonpayable",
      "type": "function"
    },
    {
      "inputs": [
        {
          "internalType": "address",
          "name": "newOwner",
          "type": "address"
        }
      ],
      "name": "transferOwnership",
      "outputs": [],
      "stateMutability": "nonpayable",
      "type": "function"
    }
  ],
  "bytecode": "0x60806040526000600560146101000a81548160ff02191690831515021790555034801561002b57600080fd5b50604051611ff2380380611ff2833981810160405281019061004d9190610202565b61006767a4c6b2fb322295fa60c01b61016660201b60201c565b610081673f8db7492f48a24960c01b61016660201b60201c565b80600160006101000a81548173ffffffffffffffffffffffffffffffffffffffff021916908373ffffffffffffffffffffffffffffffffffffffff1602179055506100dc6756c1acc120661a5e60c01b61016660201b60201c565b33600260006101000a81548173ffffffffffffffffffffffffffffffffffffffff021916908373ffffffffffffffffffffffffffffffffffffffff160217905550610137673241daa478e165db60c01b61016660201b60201c565b426003819055506101586725855e663c2c8fb260c01b61016660201b60201c565b816004819055505050610242565b50565b600080fd5b6000819050919050565b6101818161016e565b811461018c57600080fd5b50565b60008151905061019e81610178565b92915050565b600073ffffffffffffffffffffffffffffffffffffffff82169050919050565b60006101cf826101a4565b9050919050565b6101df816101c4565b81146101ea57600080fd5b50565b6000815190506101fc816101d6565b92915050565b6000806040838503121561021957610218610169565b5b60006102278582860161018f565b9250506020610238858286016101ed565b9150509250929050565b611da1806102516000396000f3fe60806040526004361061009c5760003560e01c80639f883a05116100645780639f883a051461014e578063b60d42881461018b578063bea4dfb514610195578063d39cf006146101c0578063da4658e0146101e9578063f2fde38b146102145761009c565b806313ffff01146100a1578063590e1ae3146100ca5780638da5cb5b146100e15780638edd6eb61461010c5780639e42ff9014610123575b600080fd5b3480156100ad57600080fd5b506100c860048036038101906100c391906114f5565b61023d565b005b3480156100d657600080fd5b506100df6103d9565b005b3480156100ed57600080fd5b506100f66108b5565b6040516101039190611531565b60405180910390f35b34801561011857600080fd5b506101216108db565b005b34801561012f57600080fd5b50610138610e06565b60405161014591906115ab565b60405180910390f35b34801561015a57600080fd5b50610175600480360381019061017091906114f5565b610e2c565b60405161018291906115df565b60405180910390f35b610193610e44565b005b3480156101a157600080fd5b506101aa610ff6565b6040516101b79190611613565b60405180910390f35b3480156101cc57600080fd5b506101e760048036038101906101e2919061165a565b6110fc565b005b3480156101f557600080fd5b506101fe61124b565b60405161020b91906116b5565b60405180910390f35b34801561022057600080fd5b5061023b600480360381019061023691906114f5565b61125e565b005b61025167e3bb3ccbc862c47d60c01b6113fa565b610265671743b98e441b915360c01b6113fa565b61027967af91af1a622d782060c01b6113fa565b61028d67df71a5fa5e894de060c01b6113fa565b6102a167cd098bf756faaa0160c01b6113fa565b600260009054906101000a900473ffffffffffffffffffffffffffffffffffffffff1673ffffffffffffffffffffffffffffffffffffffff163373ffffffffffffffffffffffffffffffffffffffff1614610331576040517f08c379a000000000000000000000000000000000000000000000000000000000815260040161032890611753565b60405180910390fd5b610345675cd35372baee8fa760c01b6113fa565b610359677b0156a928218cc860c01b6113fa565b61036d67191d45f1ab6ef0a860c01b6113fa565b61038167409a931fbe81fcc660c01b6113fa565b610395672dc4d9071fbaaeaf60c01b6113fa565b80600560006101000a81548173ffffffffffffffffffffffffffffffffffffffff021916908373ffffffffffffffffffffffffffffffffffffffff16021790555050565b6103ed6753acae893267b23560c01b6113fa565b610401679871febf1561ebfe60c01b6113fa565b610415673625c67ae641cf7e60c01b6113fa565b61042967dd62581668fa497160c01b6113fa565b61043d67bdb074dea7539f3b60c01b6113fa565b60045460035461044d91906117a2565b42101561048f576040517f08c379a000000000000000000000000000000000000000000000000000000000815260040161048690611822565b60405180910390fd5b6104a3673e2a4bbdd3a0944960c01b6113fa565b6104b767bd3a1445058905e760c01b6113fa565b6104cb677525399a2c96fade60c01b6113fa565b6104df672cb6ba3bdb6ddad260c01b6113fa565b6104f367a15a62e5aa9af2d960c01b6113fa565b610507672be6ae9772f2b66f60c01b6113fa565b61051b67493cd5ba634db69f60c01b6113fa565b683635c9adc5dea0000061052e476113fd565b1061056e576040517f08c379a00000000000000000000000000000000000000000000000000000000081526004016105659061188e565b60405180910390fd5b610582679b9bb0131331f98a60c01b6113fa565b61059667178ca48d8d4449c960c01b6113fa565b6105aa671d8b795cb742759360c01b6113fa565b6105be670f3ecd485f20731160c01b6113fa565b60008060003373ffffffffffffffffffffffffffffffffffffffff1673ffffffffffffffffffffffffffffffffffffffff168152602001908152602001600020540361063f576040517f08c379a0000000000000000000000000000000000000000000000000000000008152600401610636906118fa565b60405180910390fd5b61065367616e8c73cc977cfc60c01b6113fa565b61066767231e69e14561cd0260c01b6113fa565b61067b67674a5fe28c27239360c01b6113fa565b600061069167d4f0007bc2d4a65d60c01b6113fa565b6106a567a14b50a9bb6acc3160c01b6113fa565b60008060003373ffffffffffffffffffffffffffffffffffffffff1673ffffffffffffffffffffffffffffffffffffffff1681526020019081526020016000205490506106fc6747576af672a4fc3a60c01b6113fa565b3373ffffffffffffffffffffffffffffffffffffffff16816040516107209061194b565b60006040518083038185875af1925050503d806000811461075d576040519150601f19603f3d011682016040523d82523d6000602084013e610762565b606091505b50508092505061077c674d5c405185e79e5c60c01b6113fa565b6107906741afb81958bd0c0c60c01b6113fa565b6107a467c494cdd3a471b33960c01b6113fa565b816107e4576040517f08c379a00000000000000000000000000000000000000000000000000000000081526004016107db906119ac565b60405180910390fd5b6107f867f910fa104bbf603460c01b6113fa565b61080c673b08d02dc0a8e8dd60c01b6113fa565b60008060003373ffffffffffffffffffffffffffffffffffffffff1673ffffffffffffffffffffffffffffffffffffffff1681526020019081526020016000208190555061086467688eee0491d5fef860c01b6113fa565b61087867989f837b300564eb60c01b6113fa565b7fc69be1ee5ac2aec580fb0927d8d940555d6f0a7bd11eed94b5b597056113da5f33826040516108a99291906119cc565b60405180910390a15050565b600260009054906101000a900473ffffffffffffffffffffffffffffffffffffffff1681565b6108ef679480d0ed88019ade60c01b6113fa565b610903679871febf1561ebfe60c01b6113fa565b610917673625c67ae641cf7e60c01b6113fa565b61092b67dd62581668fa497160c01b6113fa565b61093f67bdb074dea7539f3b60c01b6113fa565b60045460035461094f91906117a2565b421015610991576040517f08c379a000000000000000000000000000000000000000000000000000000000815260040161098890611822565b60405180910390fd5b6109a5673e2a4bbdd3a0944960c01b6113fa565b6109b967bd3a1445058905e760c01b6113fa565b6109cd67373421878e6da79b60c01b6113fa565b6109e167b371b7e7d251c1f460c01b6113fa565b6109f5671743b98e441b915360c01b6113fa565b610a0967af91af1a622d782060c01b6113fa565b610a1d67df71a5fa5e894de060c01b6113fa565b610a3167cd098bf756faaa0160c01b6113fa565b600260009054906101000a900473ffffffffffffffffffffffffffffffffffffffff1673ffffffffffffffffffffffffffffffffffffffff163373ffffffffffffffffffffffffffffffffffffffff1614610ac1576040517f08c379a0000000000000000000000000000000000000000000000000000000008152600401610ab890611753565b60405180910390fd5b610ad5675cd35372baee8fa760c01b6113fa565b610ae9677b0156a928218cc860c01b6113fa565b610afd67200777c29ba7503c60c01b6113fa565b610b11674fc997a51d7a7a6160c01b6113fa565b610b256736e54982ab715ebd60c01b6113fa565b610b396749c050e9dbee48c560c01b6113fa565b610b4d676ccc3bf27989edad60c01b6113fa565b683635c9adc5dea00000610b60476113fd565b1015610ba1576040517f08c379a0000000000000000000000000000000000000000000000000000000008152600401610b9890611a41565b60405180910390fd5b610bb5678faca3583ff0b8e760c01b6113fa565b610bc9679ec7f9a5cf0d449360c01b6113fa565b610bdd67ace5f9094a55bd9360c01b6113fa565b6000610bf3672d815c222785aae460c01b6113fa565b610c0767e926f81e6bd6a55d60c01b6113fa565b6000479050610c2067d95a21633fec8b1260c01b6113fa565b3373ffffffffffffffffffffffffffffffffffffffff1681604051610c449061194b565b60006040518083038185875af1925050503d8060008114610c81576040519150601f19603f3d011682016040523d82523d6000602084013e610c86565b606091505b505080925050610ca067d776021cf74c143860c01b6113fa565b610cb4679e8ed05967c88bb960c01b6113fa565b610cc867af9a26306cfe8dfc60c01b6113fa565b81610d08576040517f08c379a0000000000000000000000000000000000000000000000000000000008152600401610cff906119ac565b60405180910390fd5b610d1c67b6dd73b64d53e46760c01b6113fa565b610d30671efcac36eaebe03760c01b6113fa565b60008060003373ffffffffffffffffffffffffffffffffffffffff1673ffffffffffffffffffffffffffffffffffffffff16815260200190815260200160002081905550610d886792e4f09e68cc385f60c01b6113fa565b6001600560146101000a81548160ff021916908315150217905550610db767dba1cee5f6f3ff9d60c01b6113fa565b610dcb6746715e407ebf6bbf60c01b6113fa565b7f2413e9342f4545ed6b87ad890930d6affc4c1914b742a3fad66c49d6d507c73b81604051610dfa91906115df565b60405180910390a15050565b600160009054906101000a900473ffffffffffffffffffffffffffffffffffffffff1681565b60006020528060005260406000206000915090505481565b610e5867db3bcbc68388aa8460c01b6113fa565b610e6c672ea0940d46d8f89860c01b6113fa565b610e8067851684ef509ce83060c01b6113fa565b610e94672bf97d759ee8f99060c01b6113fa565b68056bc75e2d63100000610ea7346113fd565b1015610ee8576040517f08c379a0000000000000000000000000000000000000000000000000000000008152600401610edf90611aad565b60405180910390fd5b610efc678c4382f12de568fb60c01b6113fa565b610f106791a2d41a57b902b260c01b6113fa565b610f24679145d1f78dad595160c01b6113fa565b610f3867f9180a7b7b1d8d7160c01b6113fa565b600454600354610f4891906117a2565b4210610f89576040517f08c379a0000000000000000000000000000000000000000000000000000000008152600401610f8090611b19565b60405180910390fd5b610f9d67ac3847a5a58b71c160c01b6113fa565b610fb1676522331c035e259660c01b6113fa565b346000803373ffffffffffffffffffffffffffffffffffffffff1673ffffffffffffffffffffffffffffffffffffffff16815260200190815260200160002081905550565b600061100c67b5fd07b262ef8e9960c01b6113fa565b61102067b47763680d04bf7d60c01b6113fa565b611034673483c84e9a1bdb5760c01b6113fa565b6000600160009054906101000a900473ffffffffffffffffffffffffffffffffffffffff1673ffffffffffffffffffffffffffffffffffffffff1663feaf968c6040518163ffffffff1660e01b815260040160a060405180830381865afa1580156110a3573d6000803e3d6000fd5b505050506040513d601f19601f820116820180604052508101906110c79190611bbc565b5050509150506110e1676720a898ccf0307a60c01b6113fa565b6110f5674b0fe14080a1681760c01b6113fa565b8091505090565b61111067cdf98ebb18cf41b860c01b6113fa565b61112467d232e41eb0015ce260c01b6113fa565b61113867d53779041cd6830960c01b6113fa565b61114c67ad9a957ad7d3c1ac60c01b6113fa565b600560009054906101000a900473ffffffffffffffffffffffffffffffffffffffff1673ffffffffffffffffffffffffffffffffffffffff163373ffffffffffffffffffffffffffffffffffffffff16146111dc576040517f08c379a00000000000000000000000000000000000000000000000000000000081526004016111d390611ca9565b60405180910390fd5b6111f067f31980dfe44a7b3f60c01b6113fa565b61120467c9fb87a0e1c3740560c01b6113fa565b806000808473ffffffffffffffffffffffffffffffffffffffff1673ffffffffffffffffffffffffffffffffffffffff168152602001908152602001600020819055505050565b600560149054906101000a900460ff1681565b61127267ddb820e9dbfeecee60c01b6113fa565b611286671743b98e441b915360c01b6113fa565b61129a67af91af1a622d782060c01b6113fa565b6112ae67df71a5fa5e894de060c01b6113fa565b6112c267cd098bf756faaa0160c01b6113fa565b600260009054906101000a900473ffffffffffffffffffffffffffffffffffffffff1673ffffffffffffffffffffffffffffffffffffffff163373ffffffffffffffffffffffffffffffffffffffff1614611352576040517f08c379a000000000000000000000000000000000000000000000000000000000815260040161134990611753565b60405180910390fd5b611366675cd35372baee8fa760c01b6113fa565b61137a677b0156a928218cc860c01b6113fa565b61138e6742c24550ba0bf20e60c01b6113fa565b6113a267fd903bc53d8478b760c01b6113fa565b6113b667ebace8193dbc61a260c01b6113fa565b80600260006101000a81548173ffffffffffffffffffffffffffffffffffffffff021916908373ffffffffffffffffffffffffffffffffffffffff16021790555050565b50565b60006114136743f29a823d5a90d160c01b6113fa565b611427677bf934fe99050e0760c01b6113fa565b61143b670e7e71e9e2a2bf8a60c01b6113fa565b6000611445610ff6565b905061145b672fcb830a629ff9b060c01b6113fa565b61146f672a4eaf10588ca36c60c01b6113fa565b6305f5e10081846114809190611cc9565b61148a9190611d3a565b915050919050565b600080fd5b600073ffffffffffffffffffffffffffffffffffffffff82169050919050565b60006114c282611497565b9050919050565b6114d2816114b7565b81146114dd57600080fd5b50565b6000813590506114ef816114c9565b92915050565b60006020828403121561150b5761150a611492565b5b6000611519848285016114e0565b91505092915050565b61152b816114b7565b82525050565b60006020820190506115466000830184611522565b92915050565b6000819050919050565b600061157161156c61156784611497565b61154c565b611497565b9050919050565b600061158382611556565b9050919050565b600061159582611578565b9050919050565b6115a58161158a565b82525050565b60006020820190506115c0600083018461159c565b92915050565b6000819050919050565b6115d9816115c6565b82525050565b60006020820190506115f460008301846115d0565b92915050565b6000819050919050565b61160d816115fa565b82525050565b60006020820190506116286000830184611604565b92915050565b611637816115c6565b811461164257600080fd5b50565b6000813590506116548161162e565b92915050565b6000806040838503121561167157611670611492565b5b600061167f858286016114e0565b925050602061169085828601611645565b9150509250929050565b60008115159050919050565b6116af8161169a565b82525050565b60006020820190506116ca60008301846116a6565b92915050565b600082825260208201905092915050565b7f746869732066756e6374696f6e2063616e206f6e6c792062652063616c6c656460008201527f206279206f776e65720000000000000000000000000000000000000000000000602082015250565b600061173d6029836116d0565b9150611748826116e1565b604082019050919050565b6000602082019050818103600083015261176c81611730565b9050919050565b7f4e487b7100000000000000000000000000000000000000000000000000000000600052601160045260246000fd5b60006117ad826115c6565b91506117b8836115c6565b92508282019050808211156117d0576117cf611773565b5b92915050565b7f77696e646f77206973206e6f7420636c6f736564000000000000000000000000600082015250565b600061180c6014836116d0565b9150611817826117d6565b602082019050919050565b6000602082019050818103600083015261183b816117ff565b9050919050565b7f5461726765742069732072656163686564000000000000000000000000000000600082015250565b60006118786011836116d0565b915061188382611842565b602082019050919050565b600060208201905081810360008301526118a78161186b565b9050919050565b7f7468657265206973206e6f2066756e6420666f7220796f750000000000000000600082015250565b60006118e46018836116d0565b91506118ef826118ae565b602082019050919050565b60006020820190508181036000830152611913816118d7565b9050919050565b600081905092915050565b50565b600061193560008361191a565b915061194082611925565b600082019050919050565b600061195682611928565b9150819050919050565b7f7472616e73666572207478206661696c65640000000000000000000000000000600082015250565b60006119966012836116d0565b91506119a182611960565b602082019050919050565b600060208201905081810360008301526119c581611989565b9050919050565b60006040820190506119e16000830185611522565b6119ee60208301846115d0565b9392505050565b7f546172676574206973206e6f7420726561636865640000000000000000000000600082015250565b6000611a2b6015836116d0565b9150611a36826119f5565b602082019050919050565b60006020820190508181036000830152611a5a81611a1e565b9050919050565b7f53656e64206d6f72652045544800000000000000000000000000000000000000600082015250565b6000611a97600d836116d0565b9150611aa282611a61565b602082019050919050565b60006020820190508181036000830152611ac681611a8a565b9050919050565b7f77696e646f7720697320636c6f73656400000000000000000000000000000000600082015250565b6000611b036010836116d0565b9150611b0e82611acd565b602082019050919050565b60006020820190508181036000830152611b3281611af6565b9050919050565b600069ffffffffffffffffffff82169050919050565b611b5881611b39565b8114611b6357600080fd5b50565b600081519050611b7581611b4f565b92915050565b611b84816115fa565b8114611b8f57600080fd5b50565b600081519050611ba181611b7b565b92915050565b600081519050611bb68161162e565b92915050565b600080600080600060a08688031215611bd857611bd7611492565b5b6000611be688828901611b66565b9550506020611bf788828901611b92565b9450506040611c0888828901611ba7565b9350506060611c1988828901611ba7565b9250506080611c2a88828901611b66565b9150509295509295909350565b7f796f7520646f206e6f742068617665207065726d697373696f6e20746f20636160008201527f6c6c20746869732066756e74696f6e0000000000000000000000000000000000602082015250565b6000611c93602f836116d0565b9150611c9e82611c37565b604082019050919050565b60006020820190508181036000830152611cc281611c86565b9050919050565b6000611cd4826115c6565b9150611cdf836115c6565b9250828202611ced816115c6565b91508282048414831517611d0457611d03611773565b5b5092915050565b7f4e487b7100000000000000000000000000000000000000000000000000000000600052601260045260246000fd5b6000611d45826115c6565b9150611d50836115c6565b925082611d6057611d5f611d0b565b5b82820490509291505056fea2646970667358221220f847c533c460ab0ea75dca5a4679a17482a86ab5147abd6060b61f1d936ff43964736f6c634300081b0033",
  "linkReferences": {},
  "deployedLinkReferences": {}
}