{
  "_format": "hh-sol-artifact-1",
  "contractName": "FundMe",
  "sourceName": "contracts/FundMe.sol",
  "abi": [
    {
      "inputs": [
        {
          "internalType": "uint256",
          "name": "_lockTime",
          "type": "uint256"
        }
      ],
      "stateMutability": "nonpayable",
      "type": "constructor"
    },
    {
      "inputs": [],
      "name": "erc20Addr",
      "outputs": [
        {
          "internalType": "address",
          "name": "",
          "type": "address"
        }
      ],
      "stateMutability": "view",
      "type": "function"
    },
    {
      "inputs": [],
      "name": "fund",
      "outputs": [],
      "stateMutability": "payable",
      "type": "function"
    },
    {
      "inputs": [
        {
          "internalType": "address",
          "name": "",
          "type": "address"
        }
      ],
      "name": "fundersToAmount",
      "outputs": [
        {
          "internalType": "uint256",
          "name": "",
          "type": "uint256"
        }
      ],
      "stateMutability": "view",
      "type": "function"
    },
    {
      "inputs": [],
      "name": "getChainlinkDataFeedLatestAnswer",
      "outputs": [
        {
          "internalType": "int256",
          "name": "",
          "type": "int256"
        }
      ],
      "stateMutability": "view",
      "type": "function"
    },
    {
      "inputs": [],
      "name": "getFund",
      "outputs": [],
      "stateMutability": "nonpayable",
      "type": "function"
    },
    {
      "inputs": [],
      "name": "getFundSuccess",
      "outputs": [
        {
          "internalType": "bool",
          "name": "",
          "type": "bool"
        }
      ],
      "stateMutability": "view",
      "type": "function"
    },
    {
      "inputs": [],
      "name": "owner",
      "outputs": [
        {
          "internalType": "address",
          "name": "",
          "type": "address"
        }
      ],
      "stateMutability": "view",
      "type": "function"
    },
    {
      "inputs": [],
      "name": "refund",
      "outputs": [],
      "stateMutability": "nonpayable",
      "type": "function"
    },
    {
      "inputs": [
        {
          "internalType": "address",
          "name": "_erc20Addr",
          "type": "address"
        }
      ],
      "name": "setErc20Addr",
      "outputs": [],
      "stateMutability": "nonpayable",
      "type": "function"
    },
    {
      "inputs": [
        {
          "internalType": "address",
          "name": "funder",
          "type": "address"
        },
        {
          "internalType": "uint256",
          "name": "amountToUpdate",
          "type": "uint256"
        }
      ],
      "name": "setFunderToAmount",
      "outputs": [],
      "stateMutability": "nonpayable",
      "type": "function"
    },
    {
      "inputs": [
        {
          "internalType": "address",
          "name": "newOwner",
          "type": "address"
        }
      ],
      "name": "transferOwner",
      "outputs": [],
      "stateMutability": "nonpayable",
      "type": "function"
    }
  ],
  "bytecode": "0x60806040526000600460146101000a81548160ff02191690831515021790555034801561002b57600080fd5b50604051611538380380611538833981810160405281019061004d9190610132565b73694aa1769357215de4fac081bf1f309adc325306600560006101000a81548173ffffffffffffffffffffffffffffffffffffffff021916908373ffffffffffffffffffffffffffffffffffffffff16021790555033600360006101000a81548173ffffffffffffffffffffffffffffffffffffffff021916908373ffffffffffffffffffffffffffffffffffffffff16021790555042600181905550806002819055505061015f565b600080fd5b6000819050919050565b61010f816100fc565b811461011a57600080fd5b50565b60008151905061012c81610106565b92915050565b600060208284031215610148576101476100f7565b5b60006101568482850161011d565b91505092915050565b6113ca8061016e6000396000f3fe60806040526004361061009c5760003560e01c80638edd6eb6116100645780638edd6eb6146101605780639f883a0514610177578063b60d4288146101b4578063bea4dfb5146101be578063d39cf006146101e9578063da4658e0146102125761009c565b806313ffff01146100a1578063317e3ce0146100ca5780634fb2e45d146100f5578063590e1ae31461011e5780638da5cb5b14610135575b600080fd5b3480156100ad57600080fd5b506100c860048036038101906100c39190610b55565b61023d565b005b3480156100d657600080fd5b506100df610311565b6040516100ec9190610b91565b60405180910390f35b34801561010157600080fd5b5061011c60048036038101906101179190610b55565b610337565b005b34801561012a57600080fd5b5061013361040b565b005b34801561014157600080fd5b5061014a61065c565b6040516101579190610b91565b60405180910390f35b34801561016c57600080fd5b50610175610682565b005b34801561018357600080fd5b5061019e60048036038101906101999190610b55565b61082a565b6040516101ab9190610bc5565b60405180910390f35b6101bc610842565b005b3480156101ca57600080fd5b506101d3610924565b6040516101e09190610bf9565b60405180910390f35b3480156101f557600080fd5b50610210600480360381019061020b9190610c40565b6109c5565b005b34801561021e57600080fd5b50610227610a9c565b6040516102349190610c9b565b60405180910390f35b600360009054906101000a900473ffffffffffffffffffffffffffffffffffffffff1673ffffffffffffffffffffffffffffffffffffffff163373ffffffffffffffffffffffffffffffffffffffff16146102cd576040517f08c379a00000000000000000000000000000000000000000000000000000000081526004016102c490610d39565b60405180910390fd5b80600460006101000a81548173ffffffffffffffffffffffffffffffffffffffff021916908373ffffffffffffffffffffffffffffffffffffffff16021790555050565b600460009054906101000a900473ffffffffffffffffffffffffffffffffffffffff1681565b600360009054906101000a900473ffffffffffffffffffffffffffffffffffffffff1673ffffffffffffffffffffffffffffffffffffffff163373ffffffffffffffffffffffffffffffffffffffff16146103c7576040517f08c379a00000000000000000000000000000000000000000000000000000000081526004016103be90610d39565b60405180910390fd5b80600360006101000a81548173ffffffffffffffffffffffffffffffffffffffff021916908373ffffffffffffffffffffffffffffffffffffffff16021790555050565b60025460015461041b9190610d88565b42101561045d576040517f08c379a000000000000000000000000000000000000000000000000000000000815260040161045490610e08565b60405180910390fd5b606461046847610aaf565b106104a8576040517f08c379a000000000000000000000000000000000000000000000000000000000815260040161049f90610e74565b60405180910390fd5b60008060003373ffffffffffffffffffffffffffffffffffffffff1673ffffffffffffffffffffffffffffffffffffffff1681526020019081526020016000205403610529576040517f08c379a000000000000000000000000000000000000000000000000000000000815260040161052090610ee0565b60405180910390fd5b60008060003373ffffffffffffffffffffffffffffffffffffffff1673ffffffffffffffffffffffffffffffffffffffff1681526020019081526020016000208190555060003373ffffffffffffffffffffffffffffffffffffffff166000803373ffffffffffffffffffffffffffffffffffffffff1673ffffffffffffffffffffffffffffffffffffffff168152602001908152602001600020546040516105d190610f31565b60006040518083038185875af1925050503d806000811461060e576040519150601f19603f3d011682016040523d82523d6000602084013e610613565b606091505b50508091505080610659576040517f08c379a000000000000000000000000000000000000000000000000000000000815260040161065090610f92565b60405180910390fd5b50565b600360009054906101000a900473ffffffffffffffffffffffffffffffffffffffff1681565b600360009054906101000a900473ffffffffffffffffffffffffffffffffffffffff1673ffffffffffffffffffffffffffffffffffffffff163373ffffffffffffffffffffffffffffffffffffffff1614610712576040517f08c379a000000000000000000000000000000000000000000000000000000000815260040161070990610d39565b60405180910390fd5b606461071d47610aaf565b101561075e576040517f08c379a000000000000000000000000000000000000000000000000000000000815260040161075590610ffe565b60405180910390fd5b60003373ffffffffffffffffffffffffffffffffffffffff164760405161078490610f31565b60006040518083038185875af1925050503d80600081146107c1576040519150601f19603f3d011682016040523d82523d6000602084013e6107c6565b606091505b5050809150508061080c576040517f08c379a00000000000000000000000000000000000000000000000000000000081526004016108039061106a565b60405180910390fd5b6001600460146101000a81548160ff02191690831515021790555050565b60006020528060005260406000206000915090505481565b6002546001546108529190610d88565b4210610893576040517f08c379a000000000000000000000000000000000000000000000000000000000815260040161088a906110d6565b60405180910390fd5b600161089e34610aaf565b10156108df576040517f08c379a00000000000000000000000000000000000000000000000000000000081526004016108d690611142565b60405180910390fd5b346000803373ffffffffffffffffffffffffffffffffffffffff1673ffffffffffffffffffffffffffffffffffffffff16815260200190815260200160002081905550565b600080600560009054906101000a900473ffffffffffffffffffffffffffffffffffffffff1673ffffffffffffffffffffffffffffffffffffffff1663feaf968c6040518163ffffffff1660e01b815260040160a060405180830381865afa158015610994573d6000803e3d6000fd5b505050506040513d601f19601f820116820180604052508101906109b891906111e5565b5050509150508091505090565b600460009054906101000a900473ffffffffffffffffffffffffffffffffffffffff1673ffffffffffffffffffffffffffffffffffffffff163373ffffffffffffffffffffffffffffffffffffffff1614610a55576040517f08c379a0000000000000000000000000000000000000000000000000000000008152600401610a4c906112d2565b60405180910390fd5b806000808473ffffffffffffffffffffffffffffffffffffffff1673ffffffffffffffffffffffffffffffffffffffff168152602001908152602001600020819055505050565b600460149054906101000a900460ff1681565b600080610aba610924565b90506305f5e10081670de0b6b3a764000085610ad69190611321565b610ae09190611352565b610aea9190611321565b915050919050565b600080fd5b600073ffffffffffffffffffffffffffffffffffffffff82169050919050565b6000610b2282610af7565b9050919050565b610b3281610b17565b8114610b3d57600080fd5b50565b600081359050610b4f81610b29565b92915050565b600060208284031215610b6b57610b6a610af2565b5b6000610b7984828501610b40565b91505092915050565b610b8b81610b17565b82525050565b6000602082019050610ba66000830184610b82565b92915050565b6000819050919050565b610bbf81610bac565b82525050565b6000602082019050610bda6000830184610bb6565b92915050565b6000819050919050565b610bf381610be0565b82525050565b6000602082019050610c0e6000830184610bea565b92915050565b610c1d81610bac565b8114610c2857600080fd5b50565b600081359050610c3a81610c14565b92915050565b60008060408385031215610c5757610c56610af2565b5b6000610c6585828601610b40565b9250506020610c7685828601610c2b565b9150509250929050565b60008115159050919050565b610c9581610c80565b82525050565b6000602082019050610cb06000830184610c8c565b92915050565b600082825260208201905092915050565b7f746869732066756e6374696f6e2063616e206f6e6c792062652063616c6c656460008201527f206279206f776e65722e00000000000000000000000000000000000000000000602082015250565b6000610d23602a83610cb6565b9150610d2e82610cc7565b604082019050919050565b60006020820190508181036000830152610d5281610d16565b9050919050565b7f4e487b7100000000000000000000000000000000000000000000000000000000600052601160045260246000fd5b6000610d9382610bac565b9150610d9e83610bac565b9250828201905080821115610db657610db5610d59565b5b92915050565b7f66756e642077696e646f77206973206e6f7420636c6f7365207965742e000000600082015250565b6000610df2601d83610cb6565b9150610dfd82610dbc565b602082019050919050565b60006020820190508181036000830152610e2181610de5565b9050919050565b7f54617267657420697320726561636865642e0000000000000000000000000000600082015250565b6000610e5e601283610cb6565b9150610e6982610e28565b602082019050919050565b60006020820190508181036000830152610e8d81610e51565b9050919050565b7f7468657265206973206e6f2066756e6420666f7220796f750000000000000000600082015250565b6000610eca601883610cb6565b9150610ed582610e94565b602082019050919050565b60006020820190508181036000830152610ef981610ebd565b9050919050565b600081905092915050565b50565b6000610f1b600083610f00565b9150610f2682610f0b565b600082019050919050565b6000610f3c82610f0e565b9150819050919050565b7f7472616e73666572207478206661696c65642e00000000000000000000000000600082015250565b6000610f7c601383610cb6565b9150610f8782610f46565b602082019050919050565b60006020820190508181036000830152610fab81610f6f565b9050919050565b7f546172676574206973206e6f742072656163686564207965742e000000000000600082015250565b6000610fe8601a83610cb6565b9150610ff382610fb2565b602082019050919050565b6000602082019050818103600083015261101781610fdb565b9050919050565b7f7478206661696c65642e00000000000000000000000000000000000000000000600082015250565b6000611054600a83610cb6565b915061105f8261101e565b602082019050919050565b6000602082019050818103600083015261108381611047565b9050919050565b7f66756e642077696e646f7720697320636c6f7365642e00000000000000000000600082015250565b60006110c0601683610cb6565b91506110cb8261108a565b602082019050919050565b600060208201905081810360008301526110ef816110b3565b9050919050565b7f53656e64206d6f72652045544800000000000000000000000000000000000000600082015250565b600061112c600d83610cb6565b9150611137826110f6565b602082019050919050565b6000602082019050818103600083015261115b8161111f565b9050919050565b600069ffffffffffffffffffff82169050919050565b61118181611162565b811461118c57600080fd5b50565b60008151905061119e81611178565b92915050565b6111ad81610be0565b81146111b857600080fd5b50565b6000815190506111ca816111a4565b92915050565b6000815190506111df81610c14565b92915050565b600080600080600060a0868803121561120157611200610af2565b5b600061120f8882890161118f565b9550506020611220888289016111bb565b9450506040611231888289016111d0565b9350506060611242888289016111d0565b92505060806112538882890161118f565b9150509295509295909350565b7f796f7520646f206e6f742068617665207065726d697373696f6e20746f20636160008201527f6c6c20746869732066756e6374696f6e00000000000000000000000000000000602082015250565b60006112bc603083610cb6565b91506112c782611260565b604082019050919050565b600060208201905081810360008301526112eb816112af565b9050919050565b7f4e487b7100000000000000000000000000000000000000000000000000000000600052601260045260246000fd5b600061132c82610bac565b915061133783610bac565b925082611347576113466112f2565b5b828204905092915050565b600061135d82610bac565b915061136883610bac565b925082820261137681610bac565b9150828204841483151761138d5761138c610d59565b5b509291505056fea2646970667358221220b955e854e1f11ab03a4d129b54c1702ab732443895d8b9fda471bce9b4dd42a264736f6c634300081b0033",
  "linkReferences": {},
  "deployedLinkReferences": {}
}